{
  "_format": "hh-sol-artifact-1",
  "contractName": "Raffle",
  "sourceName": "contracts/Raffle.sol",
  "abi": [
    {
      "inputs": [
        {
          "internalType": "address",
          "name": "vrfCoordinatorV2",
          "type": "address"
        },
        {
          "internalType": "uint64",
          "name": "subscriptionId",
          "type": "uint64"
        },
        {
          "internalType": "bytes32",
          "name": "gasLane",
          "type": "bytes32"
        },
        {
          "internalType": "uint256",
          "name": "interval",
          "type": "uint256"
        },
        {
          "internalType": "uint256",
          "name": "entranceFee",
          "type": "uint256"
        },
        {
          "internalType": "uint32",
          "name": "callbackGasLimit",
          "type": "uint32"
        }
      ],
      "stateMutability": "nonpayable",
      "type": "constructor"
    },
    {
      "inputs": [
        {
          "internalType": "address",
          "name": "have",
          "type": "address"
        },
        {
          "internalType": "address",
          "name": "want",
          "type": "address"
        }
      ],
      "name": "OnlyCoordinatorCanFulfill",
      "type": "error"
    },
    {
      "inputs": [],
      "name": "Raffle__RaffleNotOpen",
      "type": "error"
    },
    {
      "inputs": [],
      "name": "Raffle__SendMoreToEnterRaffle",
      "type": "error"
    },
    {
      "inputs": [],
      "name": "Raffle__TransferFailed",
      "type": "error"
    },
    {
      "inputs": [
        {
          "internalType": "uint256",
          "name": "currentBalance",
          "type": "uint256"
        },
        {
          "internalType": "uint256",
          "name": "numPlayers",
          "type": "uint256"
        },
        {
          "internalType": "uint256",
          "name": "raffleState",
          "type": "uint256"
        }
      ],
      "name": "Raffle__UpkeepNotNeeded",
      "type": "error"
    },
    {
      "anonymous": false,
      "inputs": [
        {
          "indexed": true,
          "internalType": "address",
          "name": "player",
          "type": "address"
        }
      ],
      "name": "RaffleEnter",
      "type": "event"
    },
    {
      "anonymous": false,
      "inputs": [
        {
          "indexed": true,
          "internalType": "uint256",
          "name": "requestId",
          "type": "uint256"
        }
      ],
      "name": "RequestedRaffleWinner",
      "type": "event"
    },
    {
      "anonymous": false,
      "inputs": [
        {
          "indexed": true,
          "internalType": "address",
          "name": "player",
          "type": "address"
        }
      ],
      "name": "WinnerPicked",
      "type": "event"
    },
    {
      "inputs": [
        {
          "internalType": "bytes",
          "name": "",
          "type": "bytes"
        }
      ],
      "name": "checkUpkeep",
      "outputs": [
        {
          "internalType": "bool",
          "name": "upkeepNeeded",
          "type": "bool"
        },
        {
          "internalType": "bytes",
          "name": "",
          "type": "bytes"
        }
      ],
      "stateMutability": "view",
      "type": "function"
    },
    {
      "inputs": [],
      "name": "enterRaffle",
      "outputs": [],
      "stateMutability": "payable",
      "type": "function"
    },
    {
      "inputs": [],
      "name": "getEntranceFee",
      "outputs": [
        {
          "internalType": "uint256",
          "name": "",
          "type": "uint256"
        }
      ],
      "stateMutability": "view",
      "type": "function"
    },
    {
      "inputs": [],
      "name": "getInterval",
      "outputs": [
        {
          "internalType": "uint256",
          "name": "",
          "type": "uint256"
        }
      ],
      "stateMutability": "view",
      "type": "function"
    },
    {
      "inputs": [],
      "name": "getLastTimeStamp",
      "outputs": [
        {
          "internalType": "uint256",
          "name": "",
          "type": "uint256"
        }
      ],
      "stateMutability": "view",
      "type": "function"
    },
    {
      "inputs": [],
      "name": "getNumWords",
      "outputs": [
        {
          "internalType": "uint256",
          "name": "",
          "type": "uint256"
        }
      ],
      "stateMutability": "pure",
      "type": "function"
    },
    {
      "inputs": [],
      "name": "getNumberOfPlayers",
      "outputs": [
        {
          "internalType": "uint256",
          "name": "",
          "type": "uint256"
        }
      ],
      "stateMutability": "view",
      "type": "function"
    },
    {
      "inputs": [
        {
          "internalType": "uint256",
          "name": "index",
          "type": "uint256"
        }
      ],
      "name": "getPlayer",
      "outputs": [
        {
          "internalType": "address",
          "name": "",
          "type": "address"
        }
      ],
      "stateMutability": "view",
      "type": "function"
    },
    {
      "inputs": [],
      "name": "getRaffleState",
      "outputs": [
        {
          "internalType": "enum Raffle.RaffleState",
          "name": "",
          "type": "uint8"
        }
      ],
      "stateMutability": "view",
      "type": "function"
    },
    {
      "inputs": [],
      "name": "getRecentWinner",
      "outputs": [
        {
          "internalType": "address",
          "name": "",
          "type": "address"
        }
      ],
      "stateMutability": "view",
      "type": "function"
    },
    {
      "inputs": [],
      "name": "getRequestConfirmations",
      "outputs": [
        {
          "internalType": "uint256",
          "name": "",
          "type": "uint256"
        }
      ],
      "stateMutability": "pure",
      "type": "function"
    },
    {
      "inputs": [
        {
          "internalType": "bytes",
          "name": "performData",
          "type": "bytes"
        }
      ],
      "name": "performUpkeep",
      "outputs": [],
      "stateMutability": "nonpayable",
      "type": "function"
    },
    {
      "inputs": [
        {
          "internalType": "uint256",
          "name": "requestId",
          "type": "uint256"
        },
        {
          "internalType": "uint256[]",
          "name": "randomWords",
          "type": "uint256[]"
        }
      ],
      "name": "rawFulfillRandomWords",
      "outputs": [],
      "stateMutability": "nonpayable",
      "type": "function"
    }
  ],
  "bytecode": "0x6101606040523480156200001257600080fd5b506040516200187638038062001876833981810160405281019062000038919062000294565b858073ffffffffffffffffffffffffffffffffffffffff1660808173ffffffffffffffffffffffffffffffffffffffff1681525050508573ffffffffffffffffffffffffffffffffffffffff1660a08173ffffffffffffffffffffffffffffffffffffffff16815250508360e081815250508261012081815250508467ffffffffffffffff1660c08167ffffffffffffffff16815250508161014081815250506000600360006101000a81548160ff0219169083600181111562000101576200010062000330565b5b0217905550426000819055508063ffffffff166101008163ffffffff16815250505050505050506200035f565b600080fd5b600073ffffffffffffffffffffffffffffffffffffffff82169050919050565b6000620001608262000133565b9050919050565b620001728162000153565b81146200017e57600080fd5b50565b600081519050620001928162000167565b92915050565b600067ffffffffffffffff82169050919050565b620001b78162000198565b8114620001c357600080fd5b50565b600081519050620001d781620001ac565b92915050565b6000819050919050565b620001f281620001dd565b8114620001fe57600080fd5b50565b6000815190506200021281620001e7565b92915050565b6000819050919050565b6200022d8162000218565b81146200023957600080fd5b50565b6000815190506200024d8162000222565b92915050565b600063ffffffff82169050919050565b6200026e8162000253565b81146200027a57600080fd5b50565b6000815190506200028e8162000263565b92915050565b60008060008060008060c08789031215620002b457620002b36200012e565b5b6000620002c489828a0162000181565b9650506020620002d789828a01620001c6565b9550506040620002ea89828a0162000201565b9450506060620002fd89828a016200023c565b93505060806200031089828a016200023c565b92505060a06200032389828a016200027d565b9150509295509295509295565b7f4e487b7100000000000000000000000000000000000000000000000000000000600052602160045260246000fd5b60805160a05160c05160e0516101005161012051610140516114a7620003cf600039600081816102fa01526103f701526000818161081301526108bc015260006106d10152600061068d015260006106ae01526000610651015260008181610337015261038b01526114a76000f3fe6080604052600436106100c25760003560e01c806353a2c19a1161007f57806391ad27b41161005957806391ad27b414610238578063c1c244e814610263578063e55ae4e81461028e578063fd6673f5146102cb576100c2565b806353a2c19a146101a45780635f1b0fd8146101cf5780636e04ff0d146101fa576100c2565b806309bc33a7146100c7578063115cbaf5146100f25780631fe543e31461011d5780632cfcc539146101465780634585e33b14610150578063473f1ddc14610179575b600080fd5b3480156100d357600080fd5b506100dc6102f6565b6040516100e99190610c31565b60405180910390f35b3480156100fe57600080fd5b5061010761031e565b6040516101149190610cc3565b60405180910390f35b34801561012957600080fd5b50610144600480360381019061013f9190610e77565b610335565b005b61014e6103f5565b005b34801561015c57600080fd5b5061017760048036038101906101729190610f2e565b610564565b005b34801561018557600080fd5b5061018e61078a565b60405161019b9190610fbc565b60405180910390f35b3480156101b057600080fd5b506101b96107b4565b6040516101c69190610c31565b60405180910390f35b3480156101db57600080fd5b506101e46107c3565b6040516101f19190610c31565b60405180910390f35b34801561020657600080fd5b50610221600480360381019061021c919061108c565b6107d0565b60405161022f92919061116f565b60405180910390f35b34801561024457600080fd5b5061024d6108b8565b60405161025a9190610c31565b60405180910390f35b34801561026f57600080fd5b506102786108e0565b6040516102859190610c31565b60405180910390f35b34801561029a57600080fd5b506102b560048036038101906102b0919061119f565b6108e9565b6040516102c29190610fbc565b60405180910390f35b3480156102d757600080fd5b506102e0610931565b6040516102ed9190610c31565b60405180910390f35b60007f0000000000000000000000000000000000000000000000000000000000000000905090565b6000600360009054906101000a900460ff16905090565b7f000000000000000000000000000000000000000000000000000000000000000073ffffffffffffffffffffffffffffffffffffffff163373ffffffffffffffffffffffffffffffffffffffff16146103e757337f00000000000000000000000000000000000000000000000000000000000000006040517f1cf993f40000000000000000000000000000000000000000000000000000000081526004016103de9291906111cc565b60405180910390fd5b6103f1828261093e565b5050565b7f000000000000000000000000000000000000000000000000000000000000000034101561044f576040517f3038c00a00000000000000000000000000000000000000000000000000000000815260040160405180910390fd5b6000600181111561046357610462610c4c565b5b600360009054906101000a900460ff16600181111561048557610484610c4c565b5b146104bc576040517fd24a271400000000000000000000000000000000000000000000000000000000815260040160405180910390fd5b6002339080600181540180825580915050600190039060005260206000200160009091909190916101000a81548173ffffffffffffffffffffffffffffffffffffffff021916908373ffffffffffffffffffffffffffffffffffffffff1602179055503373ffffffffffffffffffffffffffffffffffffffff167f0805e1d667bddb8a95f0f09880cf94f403fb596ce79928d9f29b74203ba284d460405160405180910390a2565b60006105b383838080601f016020809104026020016040519081016040528093929190818152602001838380828437600081840152601f19601f820116905080830192505050505050506107d0565b509050806106225747600280549050600360009054906101000a900460ff1660018111156105e4576105e3610c4c565b5b6040517f584327aa000000000000000000000000000000000000000000000000000000008152600401610619939291906111f5565b60405180910390fd5b6001600360006101000a81548160ff0219169083600181111561064857610647610c4c565b5b021790555060007f000000000000000000000000000000000000000000000000000000000000000073ffffffffffffffffffffffffffffffffffffffff16635d3b1d307f00000000000000000000000000000000000000000000000000000000000000007f000000000000000000000000000000000000000000000000000000000000000060037f000000000000000000000000000000000000000000000000000000000000000060016040518663ffffffff1660e01b81526004016107129594939291906112a4565b6020604051808303816000875af1158015610731573d6000803e3d6000fd5b505050506040513d601f19601f82011682018060405250810190610755919061130c565b9050807fcd6e45c8998311cab7e9d4385596cac867e20a0587194b954fa3a731c93ce78b60405160405180910390a250505050565b6000600160009054906101000a900473ffffffffffffffffffffffffffffffffffffffff16905090565b6000600163ffffffff16905090565b6000600361ffff16905090565b600060606000600360009054906101000a900460ff1660018111156107f8576107f7610c4c565b5b6000600181111561080c5761080b610c4c565b5b14905060007f0000000000000000000000000000000000000000000000000000000000000000600054426108409190611368565b119050600080600280549050119050600080471190508280156108605750835b80156108695750805b80156108725750815b9550856040518060400160405280600381526020017f30783000000000000000000000000000000000000000000000000000000000008152509550955050505050915091565b60007f0000000000000000000000000000000000000000000000000000000000000000905090565b60008054905090565b6000600282815481106108ff576108fe61139c565b5b9060005260206000200160009054906101000a900473ffffffffffffffffffffffffffffffffffffffff169050919050565b6000600280549050905090565b60006002805490508260008151811061095a5761095961139c565b5b602002602001015161096c91906113fa565b90506000600282815481106109845761098361139c565b5b9060005260206000200160009054906101000a900473ffffffffffffffffffffffffffffffffffffffff16905080600160006101000a81548173ffffffffffffffffffffffffffffffffffffffff021916908373ffffffffffffffffffffffffffffffffffffffff160217905550600067ffffffffffffffff811115610a0d57610a0c610d34565b5b604051908082528060200260200182016040528015610a3b5781602001602082028036833780820191505090505b5060029080519060200190610a51929190610b71565b506000600360006101000a81548160ff02191690836001811115610a7857610a77610c4c565b5b02179055504260008190555060008173ffffffffffffffffffffffffffffffffffffffff1647604051610aaa9061145c565b60006040518083038185875af1925050503d8060008114610ae7576040519150601f19603f3d011682016040523d82523d6000602084013e610aec565b606091505b5050905080610b27576040517fa1d04b3900000000000000000000000000000000000000000000000000000000815260040160405180910390fd5b8173ffffffffffffffffffffffffffffffffffffffff167f5b690ec4a06fe979403046eaeea5b3ce38524683c3001f662c8b5a829632f7df60405160405180910390a25050505050565b828054828255906000526020600020908101928215610bea579160200282015b82811115610be95782518260006101000a81548173ffffffffffffffffffffffffffffffffffffffff021916908373ffffffffffffffffffffffffffffffffffffffff16021790555091602001919060010190610b91565b5b509050610bf79190610bfb565b5090565b5b80821115610c14576000816000905550600101610bfc565b5090565b6000819050919050565b610c2b81610c18565b82525050565b6000602082019050610c466000830184610c22565b92915050565b7f4e487b7100000000000000000000000000000000000000000000000000000000600052602160045260246000fd5b60028110610c8c57610c8b610c4c565b5b50565b6000819050610c9d82610c7b565b919050565b6000610cad82610c8f565b9050919050565b610cbd81610ca2565b82525050565b6000602082019050610cd86000830184610cb4565b92915050565b6000604051905090565b600080fd5b600080fd5b610cfb81610c18565b8114610d0657600080fd5b50565b600081359050610d1881610cf2565b92915050565b600080fd5b6000601f19601f8301169050919050565b7f4e487b7100000000000000000000000000000000000000000000000000000000600052604160045260246000fd5b610d6c82610d23565b810181811067ffffffffffffffff82111715610d8b57610d8a610d34565b5b80604052505050565b6000610d9e610cde565b9050610daa8282610d63565b919050565b600067ffffffffffffffff821115610dca57610dc9610d34565b5b602082029050602081019050919050565b600080fd5b6000610df3610dee84610daf565b610d94565b90508083825260208201905060208402830185811115610e1657610e15610ddb565b5b835b81811015610e3f5780610e2b8882610d09565b845260208401935050602081019050610e18565b5050509392505050565b600082601f830112610e5e57610e5d610d1e565b5b8135610e6e848260208601610de0565b91505092915050565b60008060408385031215610e8e57610e8d610ce8565b5b6000610e9c85828601610d09565b925050602083013567ffffffffffffffff811115610ebd57610ebc610ced565b5b610ec985828601610e49565b9150509250929050565b600080fd5b60008083601f840112610eee57610eed610d1e565b5b8235905067ffffffffffffffff811115610f0b57610f0a610ed3565b5b602083019150836001820283011115610f2757610f26610ddb565b5b9250929050565b60008060208385031215610f4557610f44610ce8565b5b600083013567ffffffffffffffff811115610f6357610f62610ced565b5b610f6f85828601610ed8565b92509250509250929050565b600073ffffffffffffffffffffffffffffffffffffffff82169050919050565b6000610fa682610f7b565b9050919050565b610fb681610f9b565b82525050565b6000602082019050610fd16000830184610fad565b92915050565b600080fd5b600067ffffffffffffffff821115610ff757610ff6610d34565b5b61100082610d23565b9050602081019050919050565b82818337600083830152505050565b600061102f61102a84610fdc565b610d94565b90508281526020810184848401111561104b5761104a610fd7565b5b61105684828561100d565b509392505050565b600082601f83011261107357611072610d1e565b5b813561108384826020860161101c565b91505092915050565b6000602082840312156110a2576110a1610ce8565b5b600082013567ffffffffffffffff8111156110c0576110bf610ced565b5b6110cc8482850161105e565b91505092915050565b60008115159050919050565b6110ea816110d5565b82525050565b600081519050919050565b600082825260208201905092915050565b60005b8381101561112a57808201518184015260208101905061110f565b60008484015250505050565b6000611141826110f0565b61114b81856110fb565b935061115b81856020860161110c565b61116481610d23565b840191505092915050565b600060408201905061118460008301856110e1565b81810360208301526111968184611136565b90509392505050565b6000602082840312156111b5576111b4610ce8565b5b60006111c384828501610d09565b91505092915050565b60006040820190506111e16000830185610fad565b6111ee6020830184610fad565b9392505050565b600060608201905061120a6000830186610c22565b6112176020830185610c22565b6112246040830184610c22565b949350505050565b6000819050919050565b61123f8161122c565b82525050565b600067ffffffffffffffff82169050919050565b61126281611245565b82525050565b600061ffff82169050919050565b61127f81611268565b82525050565b600063ffffffff82169050919050565b61129e81611285565b82525050565b600060a0820190506112b96000830188611236565b6112c66020830187611259565b6112d36040830186611276565b6112e06060830185611295565b6112ed6080830184611295565b9695505050505050565b60008151905061130681610cf2565b92915050565b60006020828403121561132257611321610ce8565b5b6000611330848285016112f7565b91505092915050565b7f4e487b7100000000000000000000000000000000000000000000000000000000600052601160045260246000fd5b600061137382610c18565b915061137e83610c18565b925082820390508181111561139657611395611339565b5b92915050565b7f4e487b7100000000000000000000000000000000000000000000000000000000600052603260045260246000fd5b7f4e487b7100000000000000000000000000000000000000000000000000000000600052601260045260246000fd5b600061140582610c18565b915061141083610c18565b9250826114205761141f6113cb565b5b828206905092915050565b600081905092915050565b50565b600061144660008361142b565b915061145182611436565b600082019050919050565b600061146782611439565b915081905091905056fea26469706673582212209d2e01c2ac035bfe15d1d27e8e98484bc1975e9985dd3ba40bf909d396ca733664736f6c63430008110033",
  "linkReferences": {},
  "deployedLinkReferences": {}
}